:020000021000EC
:10200000507B0020C9A80200C1A90200C1A902009A
:1020100000000000000000000000000000000000C0
:10202000000000000000000000000000619A0100B4
:102030000000000000000000819B0100C99B01001E
:10204000C1A90200C1A90200C1A90200196A0200C7
:10205000455F0200C1A90200A92C0100C1A902002C
:10206000ED2D0100BD700200D5700200ED70020080
:10207000057102001D7102003571020011A80200F5
:1020800025A8020039A802004D7701006177010000
:10209000757701000000000000000000312B0100F6
:1020A000C1A902006D2C0100C1A90200C1A9020052
:1020B0000000000010B5064C2378002B07D1054B1B
:1020C000002B02D0044800E000BF0123237010BDA4
:1020D000F002002000000000FC960300084B10B541
:1020E000002B03D00749084800E000BF07480368F9
:1020F000002B00D110BD064B002BFBD09847F9E711
:1021000000000000F4020020FC960300FC9603008F
:102110000000000080B582B000AF78607B680022CC
:102120001A70C046BD4602B080BD000080B582B0C6
:1021300000AF02003960FB1D1A70FB1D1B78012BDC
:102140000AD0022B0FD0002B14D10E4B0D4A9169EF
:102150003A680A439A610FE00A4B0A4AD1693A6821
:102160000A43DA6108E0074B064A116A3A680A43F3
:102170001A6201E0172300E000231800BD4602B0F8
:1021800080BDC0460004004080B582B000AF7860DA
:102190007B6880221A707B6800225A707B6801225B
:1021A0009A707B680022DA70C046BD4602B080BDDE
:1021B00080B582B000AF0200FB1D1A70FB1D1B78BA
:1021C000002B02D0012B07D00DE0084B074A126C00
:1021D00002210A431A6406E0044B044A126C0421EB
:1021E0000A431A64C046BD4602B080BD00080040E4
:1021F00080B584B000AF78607B681B68FB60FB68CB
:102200005B7EDBB25BB2002B01DA012300E000232E
:102210001800BD4604B080BD80B582B000AF7860C4
:102220007B6800221A707B6800225A707B6800224B
:102230005A807B6800221A717B6800221A767B68BC
:1022400000221A627B680022DA617B6800229A60B1
:102250007B6800221A737B68C0225201DA817B6896
:1022600000221A747B6800225A747B6800229A74D8
:102270007B680022DA747B6800221A757B682A2248
:10228000002199547B6800225A757B6800229A7558
:102290007B682422002199547B680022DA847B68C1
:1022A00000221A857B680022DA757B682B220021C8
:1022B00099547B682C2200219954C046BD4602B037
:1022C00080BD000080B598B000AF78600C23FA188C
:1022D000154B1000190050231A00144B9847144B4B
:1022E000FB657B68132B1AD80C23FB187A689200C5
:1022F000D358FB650823FB1818000E4B984708239A
:10230000FB1800229A700823FB1801221A70FB6D3B
:10231000DBB20822BA1811001800074B9847C046D4
:10232000BD4618B080BDC046205403000D400300D8
:10233000FFFF000089210100999B0200F0B589B0E0
:1023400000AF786039601F23FB1800221A70102339
:10235000BB611723FB1800221A707B681B683B6166
:102360000C23FB181800CE4B98473B681A780C23B7
:10237000FB181A700C23FB1819001E20C94B984734
:102380001E20C94B98473B682C229B5C002B40D0F9
:102390001623FB183A682B21525C1A703B68197B94
:1023A0001523FB181622BA1812788A181A703B687F
:1023B0002C22995C0F23FB181522BA1812788A1860
:1023C0001A7018E01623FB181B780F2213403A6886
:1023D000127B9B181800B54B98471523FB181A78E9
:1023E0001523FB1801321A701623FB181A781623CE
:1023F000FB1801321A701523FA180F23FB181278F4
:102400001B789A42DED33B68DB891800A74B9847BC
:1024100009E03B681B7B1800A44B98473B68DB89AD
:102420001800A24B98473B685B7D9B00DAB23B6982
:102430001A703B689B7DDB015AB23B685B785BB2EC
:1024400013435BB2DAB23B695A703B681B79342B99
:1024500046D89A00964BD3181B689F461F23FB183B
:102460003A68527C1A701723FB183A68127C1A706B
:102470001023BB6136E01F23FB1801221A701723BB
:10248000FB1802221A701023BB612BE01F23FB18DC
:1024900002221A701723FB1804221A701023BB6142
:1024A00020E01F23FB1801221A701723FB180622B5
:1024B0001A701023BB6115E01F23FB1800221A704D
:1024C0001723FB1808221A701023BB610AE030237F
:1024D000BB6107E02023BB6104E00023BB6101E096
:1024E0001723AEE11F23FB181B781B01DBB2702200
:1024F0001340DAB21723FB181B781343DAB23B6997
:102500009A703B68DB7D3F2B01D9172399E13B682B
:10251000DA7D3B69DA70C0467B681800654B9847E6
:10252000031EF9D13B685A88BB699BB213439AB228
:102530003B6824215B5C9BB2DB009BB213439AB2E5
:102540003B681B7D9BB29B009BB213439AB23B68D6
:102550009B7C9BB2DB189BB213439AB23B68DB7C3B
:102560009BB213439AB23B699A803B681B7E002B57
:1025700000D1C4E0BB69102B00D176E002D8002B5B
:102580004DD0BCE0202B23D0302B00D0B7E03B68EF
:10259000DB7C002B11D03B68DB697F2B0BDC3B68BD
:1025A000DB69803307DB3B681B6A7F2B03DC3B68FE
:1025B0001B6A803301DA172343E13B68DB69FF2B99
:1025C00004DC3B681B6AFF2B00DC91E0172338E139
:1025D0003B68DB7C002B15D03B68DB69364A9342B5
:1025E0000EDC3B68DB69354A934209DB3B681B6ABA
:1025F000314A934204DC3B681B6A304A934201DA59
:1026000017231EE13B68DB692D4A934205DC3B68DA
:102610001B6A2B4A934200DC6CE0172311E13B68F4
:10262000DB7C002B15D03B68DB69264A93420EDC2D
:102630003B68DB69244A934209DB3B681B6A214AF9
:10264000934204DC3B681B6A1F4A934201DA17235A
:10265000F7E03B68DB691D4A934204DC3B681B6A78
:102660001A4A934248DD1723EBE03B68DB7C002BE2
:1026700032D03B68DB69164A93420EDC3B68DB696B
:10268000144A934209DB3B681B6A114A934204DCFB
:102690003B681B6A0F4A93421EDA1723D1E0C046FB
:1026A00015210100399802007D980200C522010021
:1026B00070540300F1210100FF01000000FEFFFF44
:1026C000FF030000FF07000000F8FFFFFF0F0000FE
:1026D000FF7F00000080FFFF3B68DB695B4A93429D
:1026E00004DC3B681B6A594A934207DD1723A8E0C4
:1026F000C04604E0C04602E0C04600E0C046C04616
:102700007B681800524B9847031EF9D13B681A7E2C
:102710003B691A72C0467B6818004D4B9847031EF0
:10272000F9D13B68DB699AB23B699A83C0467B6802
:102730001800474B9847031EF9D13B681B6A9AB2B1
:102740003B691A841423FB183A682C21525C1A70D6
:102750001423FB181B78002B06D01423FB181A78BF
:102760001423FB18013A1A701423FB181B780F2B43
:1027700004D83B682B229B5C0F2B01D9172360E008
:10278000C0467B681800324B9847031EF9D13B685E
:102790009B683A682B21525C120513431422BA1825
:1027A0001278120413433A68D28913433A68127BB1
:1027B0001A433B691A613B682A229A5C3B691A7585
:1027C0003B690F229A753B6824229B5C002B1ED02C
:1027D0003B68DB8C1F4A934201D9172331E03B68E9
:1027E000DA8C3B699A843B6828229B5E1A4A9342A2
:1027F00005DC3B6828229B5E184A934201DA1723C6
:102800001FE03B6828229B5E9AB23B69DA84144B36
:102810001B68DB089BB21B029AB2E023DB0013406B
:102820009AB2104B5C681B686101DD0E0D43E60E29
:10283000ABB2FF210B409BB213439AB23B691A859E
:1028400000231800BD4609B0F0BDC046FFFF0000E0
:10285000F1210100FF0F0000FF07000000F8FFFF5B
:10286000246080002060800080B586B000AFF860F2
:10287000B9607A60FB68BA681A6080235B0219004D
:102880000220324B9847BB681B78DBB21A00012349
:10289000134001D0052355E0BB681B78DBB21A005A
:1028A0000223134001D01C234CE07B685A78FB685C
:1028B0001A71FB681B79002B02D10120244B984729
:1028C0001723FB1800221A700EE01723FB181A7842
:1028D000FB68023292000021D1501723FB181A78AE
:1028E0001723FB1801321A701723FB181B78022BD1
:1028F000EBD9FB6800229A76FB680022DA76FB6847
:1029000000221A83FB6800221A77124BFA681A60B9
:102910007B682A229B5C002B0AD17B681B7D0122ED
:102920005340DBB2002B03D0FB6801225A7702E050
:10293000FB6800225A777A68FB6811001800064B82
:10294000984703001800BD4606B080BD2D21010048
:10295000B12101008C4500203D23010080B584B0E9
:1029600000AF78607B681B68FB60FB685B7EDBB256
:102970005BB2002B01DA012300E000231800BD4602
:1029800004B080BD80B584B000AF78607B681B6800
:10299000FB60C0467B6818000B4B9847031EF9D1BB
:1029A000FB681B7BDBB202221343DAB2FB681A73AB
:1029B000C0467B681800044B9847031EF9D1C046F7
:1029C000BD4604B080BDC0465D29010080B584B01D
:1029D00000AF78600A00FB1C1A707B681B68FB6004
:1029E000FB68FA1C12789A75C046BD4604B080BDDB
:1029F00080B584B000AF0200FB1D1A70FB1D1A7871
:102A0000474B9200D358FB60FB681B681B7EDAB211
:102A1000FB681B68DB7DDBB21340DBB2BB60BB68CD
:102A20000122134045D0FB681B6801221A76C0467C
:102A3000FB6818003B4B9847031EF9D1FB685B69A4
:102A4000991CFA685161FA681268528B92B21A8026
:102A5000FB681B8B9BB2013B9BB2FA68191C11836C
:102A6000002B08D0FB685B7F002B22D0FB6818008E
:102A70002D4B98471DE0FB68012118002B4B984710
:102A8000FB681B7FDBB2052B13D1FB6800221A7792
:102A9000FB68DB7E1A00012313400AD0FB689B7E93
:102AA0001A000123134004D0FB689B68FA681000E9
:102AB0009847BB680422134014D0FB681B680422AB
:102AC0001A76FB68DB7E1A00022313400AD0FB68EB
:102AD0009B7E1A000223134004D0FB68DB68FA686F
:102AE00010009847BB680222134014D0FB681B6893
:102AF00002221A76FB68DB7E1A00042313400AD0F8
:102B0000FB689B7E1A000423134004D0FB681B69FA
:102B1000FA6810009847C046BD4604B080BDC04664
:102B20008C4500205D29010085290100CD29010087
:102B300080B500AF0020024B9847C046BD4680BD1F
:102B4000F129010080B582B000AF0200FB1D1A70B0
:102B5000074AFB1D1B7819001F230B4001219940D8
:102B60000B0019008023D150C046BD4602B080BD85
:102B700000E100E080B584B000AF0200FB1D1A70D8
:102B8000FB1D1A78374B9200D358FB60FB681B681B
:102B9000BB60BB689B79DBB21A00012313400ED0E7
:102BA000BB6801229A71FB681433002B07D0FB68C5
:102BB0005B7C002B03D0FB689B6900209847BB68B7
:102BC0009B79DBB21A000223134047D0BB68022274
:102BD0009A71FB689B899BB2002B33D0FB689A6883
:102BE000FB68DB899BB2591C88B2F968C8815B001D
:102BF000D3181B889AB2BB689A81FB689B899BB2E9
:102C0000013B9AB2FB689A81FB689B899BB2002BBF
:102C100018D1FB68202200219954BB6802221A7146
:102C2000BB6802229A7119200F4B9847FB68143336
:102C3000002B07D0FB689B7C002B03D0FB68DB6973
:102C400000209847FB681433002B07D0FB681B7CDF
:102C5000002B03D0FB685B6900209847C046BD4647
:102C600004B080BD90450020452B010080B500AF29
:102C70000020024B9847C046BD4680BD752B010021
:102C800080B500AF024B9847C046BD4680BDC046E8
:102C9000A55B020080B500AF024B9847C046BD4619
:102CA00080BDC046F95B020080B586B000AF494BDD
:102CB0009847494B1B8C9BB2DAB21723FB180F21A4
:102CC0000A401A701723FB181A78444B9200D35805
:102CD0003B61414A3B691B780F210B40D9B23F232E
:102CE000D1543D490F23FB184E228A5C1A703B6970
:102CF0001B783B4A1B01D31802331B889BB2BB6075
:102D00003B691B78374A1B01D31802331B889BB2DF
:102D10007B60BA687B68D21A3B695A610F23FB1843
:102D20001B780122134016D02B4A4E230121D15487
:102D30003B6910225A743B691B7C1A000123134023
:102D400042D03B695B68002B3ED03B695B683A69C7
:102D50001000984738E00F23FB181B78022213401D
:102D600016D01D4A4E230221D1543B6900225A74C9
:102D70003B691B7C1A000223134025D03B699B68EA
:102D8000002B21D03B699B683A69100098471BE0F3
:102D90000F23FB181B780422134015D00E4A4E2334
:102DA0000421D1543B6906225A743B691B7C1A00EA
:102DB0000423134008D03B69DB68002B04D03B6937
:102DC000DB683A6910009847074B9847C046BD46F4
:102DD00006B080BD812C0100004800416003002046
:102DE000A045002010030020952C010080B582B082
:102DF00000AF154B1B697B60144B9B693B60124B0A
:102E00009A683B681A43104B9A60104B104A9A61BB
:102E100008E07B685A687B681B68180090477B68ED
:102E20009B687B607B68002BF3D1074BDB683B60C2
:102E3000054B9B683A68D2431A40034B9A60C046E0
:102E4000BD4602B080BDC046000000200004004224
:102E5000FFFF0F0F80B582B000AF02003960FB1D8D
:102E60001A70FB1D1B78012B0AD0022B0FD0002BF0
:102E700014D10E4B0D4A91693A680A439A610FE0EA
:102E80000A4B0A4AD1693A680A43DA6108E0074BFB
:102E9000064A116A3A680A431A6201E0172300E001
:102EA00000231800BD4602B080BDC04600040040AB
:102EB00080B500AF02210220074B9847074B012243
:102EC0001A70C046054B1B78DBB21A000123134071
:102ED000F8D1C046BD4680BD552E01000004004219
:102EE00080B584B000AF78607B681B68FB60FB68CE
:102EF000DB69072213405A1E9341DBB21800BD461E
:102F000004B080BD80B582B000AF7860C0467B68F9
:102F10001800044B9847031EF9D1C046BD4602B0C5
:102F200080BDC046E12E010080B584B000AF78605E
:102F30007B681B68FB60FB681B681B01DB0FDBB257
:102F40001A000B23FB18511E8A411A700823FB1824
:102F50007A68528B1A807B689B8B9AB20823FB1885
:102F60000821791809888A1A1A807B689B8B9BB282
:102F7000013B9AB27B689A830B23FB181B78002BCA
:102F800010D07B68DB7A002B1CD07B689B8B9BB2BC
:102F9000012B17D1FB685B688022D2021A43FB68C1
:102FA0005A600FE07B68DB7A002B0BD07B689B8B31
:102FB0009BB2002B06D1FB685B688022D2021A43C9
:102FC000FB685A607B689B8B9BB2002B0ED17B68A1
:102FD0009B7A002B0AD07B6818000E4B9847FB6841
:102FE0005B68C02292021A43FB685A607B68180033
:102FF000084B98477B681A6A0823FB181B88D3186C
:10300000FA682821525CD2B21A70C046BD4604B09C
:1030100080BDC046052F010080B584B000AF786048
:103020007B681B68FB60FB685B8B9BB21A00042308
:10303000134004D07B6825221E21995424E00A23E2
:10304000FB187A68528B1A807B689B8B9AB20A2392
:10305000FB180A21791809888A1A1A807B689B8BC9
:103060009BB2013B9AB27B689A837B681800084B3D
:1030700098477B681A6A0A23FB181B88D3181B78A9
:10308000D9B2FB6828229954BD4604B080BDC04621
:10309000052F010080B584B000AF78607B681B68A5
:1030A000FB60FB681B7EDBB21A00012313402BD0B0
:1030B000FB6801221A76FB685B8B9BB21A00022325
:1030C000134004D07B682522412199541CE0FB6801
:1030D0005B8B9BB21A000423134015D07B6825221A
:1030E000182199547B6800229A837B689B7A002B75
:1030F0000AD07B681800134B9847FB685B68C022B6
:1031000092021A43FB685A607B689B8B9AB27B6879
:103110005A837B6825229B5CDBB2052B0ED17B6832
:1031200024229B5CDBB2002B04D17B681800064B89
:10313000984703E07B681800044B9847C046BD469B
:1031400004B080BD052F010019300100292F0100B6
:1031500080B584B000AFF860B960FB1D1A70FB1D2C
:103160001B78FA6802339B00D3180433BA681A60DC
:10317000FB681B7EDBB25AB2FB1D1B780121994014
:103180000B005BB213435BB2DAB2FB681A76C0463F
:10319000BD4604B080BD000090B587B000AF786038
:1031A00039607B681B683B613B685A687B681A62C0
:1031B0003B685A887B689A837B6824220121995452
:1031C0007B682522052199543B691B681B01DB0F95
:1031D000DBB21A000F23FB18511E8A411A703B689C
:1031E0005B7A002B06D03B689A7A7B681100180046
:1031F0003B4B98470F23FB181B78002B0BD03B68E9
:103200005B88012B07D13B695B688022D2021A439D
:103210003B695A6005E03B695B68324A1A403B698A
:103220005A603B681B7A002B45D03B681B885A00CC
:103230003B685B7A9B0313431A0080231B021A43EB
:103240003B695A621723FC187B681800264B984785
:10325000030023703B695B68224A1A403B695A604D
:103260001723FB181B78002B07D11723FC187B684A
:1032700018001E4B9847030023701723FB181B7878
:10328000002B14D13B6903229A753B681B881B0AEB
:103290009BB2782213439BB25A003B685B7A9B0334
:1032A0001343012213431A003B695A6212E01723A9
:1032B000FB181B780FE03B6903229A753B681B885B
:1032C0005B0001221A433B685B7A9B0313431A009D
:1032D0003B695A6200231800BD4607B090BDC04646
:1032E000F9760100FFFFFBFF9B7601003D760100B0
:1032F00080B582B000AF786039607B689B8B9BB2F1
:10330000002B01D005230CE07B6801229A727B68B8
:103310000122DA723A687B6811001800034B984763
:1033200003001800BD4602B080BDC04699310100BF
:1033300080B584B000AF786039607B681B68FB6043
:103340003B685B7A002B06D03B689A7A7B68110059
:1033500018001E4B9847FB685B681D4A1A40FB68C3
:103360005A603B685A687B681A623B685A887B6877
:103370009A837B682422002199547B6825220521A9
:103380009954FB6803229A753B681B7A002B0DD079
:103390003B681B885A003B685B7A9B0313431A0007
:1033A00080231B021A43FB685A6209E03B681B88B2
:1033B0005A003B685B7A9B0313431A00FB685A620E
:1033C00000231800BD4604B080BDC046F976010058
:1033D000FFFFFBFF80B582B000AF786039607B688B
:1033E0009B8B9BB2002B01D005230CE07B68012254
:1033F0009A727B680122DA723A687B6811001800C1
:10340000034B984703001800BD4602B080BDC0467C
:103410003133010080B586B000AF0200FB1D1A7089
:10342000FB1D1A78934B9200D3587B617B691B6814
:103430003B613B691B681B01DB0FDBB21A000F23EA
:10344000FB18511E8A411A700E23FB187A69527EAE
:103450001A707B691B7EDAB20E23FB180E217918D5
:1034600009780A401A707B695B8B9BB2002B09D1EB
:103470007B699B8B9BB2002B04D07B6918007E4B31
:10348000984770E07B695B8B9BB2002B39D07B69DE
:103490009B8B9BB2002B34D17B6925229B5CDBB2DA
:1034A000052B2ED17B6924229B5CDBB2002B28D11B
:1034B0003B6903221A757B6900225A837B692522A6
:1034C000002199547B699B7A002B0BD07B691800F3
:1034D0006A4B98473B695B68C02292021A433B697A
:1034E0005A6002E03B6901221A760E23FB181B7812
:1034F0000122134037D07B69DB687A691000984756
:1035000031E07B695B8B9BB2002B2CD07B699B8B62
:103510009BB2002B27D03B695B8B9BB21A00202308
:10352000134011D10F23FB181B7801225340DBB24B
:10353000002B04D17B699B8B9BB2012B04D07B6950
:103540002522412199540EE07B6924229B5CDBB249
:10355000002B04D17B691800494B984703E07B6935
:103560001800484B98477B695B8B9BB2002B47D078
:103570007B699B8B9BB2002B42D17B6925229B5C94
:10358000DBB2052B3CD17B6924229B5CDBB2012B97
:1035900036D13B691B7EDBB21A000223134002D0F6
:1035A0003B6902221A763B6903221A757B69002265
:1035B0005A837B692522002199540E23FB181B781E
:1035C000022213400BD07B6924229B5CDBB2012BCF
:1035D00005D17B691B697A691000984710E00E23BA
:1035E000FB181B78012213400AD07B6924229B5CC4
:1035F000DBB2002B04D17B69DB687A691000984745
:103600007B6925229B5CDBB2052B2ED07B692522B2
:103610009B5CDBB2002B28D03B6903221A757B69C7
:1036200000225A837B6900229A837B6925229B5C56
:10363000DBB2412B0ED07B699B7A002B0AD07B69D1
:1036400018000E4B98473B695B68E022D2021A4390
:103650003B695A600E23FB181B780422134004D0E8
:103660007B695B697A6910009847C046BD4606B021
:1036700080BDC046C05A002095300100052F0100D2
:1036800019300100292F010080B500AFBFF34F8F23
:10369000024B034ADA60BFF34F8FFEE700ED00E014
:1036A0000400FA0580B500AF024B9847C046BD46FE
:1036B00080BDC0468936010080B586B000AF786015
:1036C000964B1800964B9847964B1800944B98478A
:1036D000954B1800924B9847944B1800904B984785
:1036E000934B18008E4B98471723FB1800221A7033
:1036F000904B1800904B98470322002101208F4BDC
:10370000984702008E4B1A608D4B1B68002B07D127
:103710008C4B190003208C4B984700208B4B98470B
:103720000C23FB1818008A4B98470C23FB181B78B6
:103730000A2B04D00C23FB181B780D2B37D1854B9B
:1037400018007D4B9847844B00221A70834B00224F
:103750001A708349834B31221800834B9847814B61
:1037600031220021995481497D4B64221800804BFD
:10377000984703003B617D4B6322002199547B4BAA
:1037800018006D4B98473B69002BECD11723FB18B1
:1037900000221A70724B322200211800754B984794
:1037A000724B642200211800724B9847B5E06A4BB7
:1037B0001B78002B59D0694B1B78032B0CD8674B17
:1037C0001B785A1CD1B2654A11701A000C23FB18E1
:1037D0001978694B995405E05F4B00221A705F4BD2
:1037E00000221A705D4B1B78012B99D9634A624BFA
:1037F00011001800624B9847031E2FD06149584BA7
:103800001B221800604B9847554B18004A4B9847AD
:103810001723FB1800221A70514B32220021180086
:10382000544B98474F494E4B312218004E4B984706
:103830004B4B1800554B98470300302B06D8494B8B
:103840001800524B98470300DAB200E031221723E8
:10385000FB181A70424B1800374B98473E4B00221A
:103860001A703E4B00221A705AE70C23FB181B7883
:103870000D2B00D154E70C23FB181B78082B04D028
:103880000C23FB181B787F2B1CD10823FB18404A04
:1038900012681A600823FB181800274B9847172353
:1038A000FB181B78002B37D01723FB181A78172327
:1038B000FB18013A1A701723FB181B78284A0021BD
:1038C000D15429E00C23FB181B781B2B06D1224B6B
:1038D00001221A70214B00221A7021E71723FB18CE
:1038E0001B78312B0ED81723FB181B780C22BA1823
:1038F00011781B4AD1541723FB181A781723FB1889
:1039000001321A700C23FB1800225A700C23FB188A
:103910001800094B984703E7C04601E72857030002
:1039200041780100685703003857030058570300D7
:10393000485703004455030065D70100059E010068
:10394000F04500206856030051D80100F1BB01008A
:103950009539010088560300840300208503002068
:10396000BC030020880300202B440300F003002048
:10397000B178010043400300540400208C5603003A
:10398000454303009056030001430300FB4303003B
:103990009856030080B584B000AF78607B6818004B
:1039A0000C4B98470300FB600DE00B4B1A6801239A
:1039B0005B4219001000094B98477B681800054BC3
:1039C00098470300FB60FB680133EED0C046BD465C
:1039D00004B080BD01D80100F0450020BDAD01005C
:1039E00080B500AF0A4B00221A600A4B1B68084AD8
:1039F00011001800084B9847054B1B68002B03D09B
:103A0000064B802252051A60C046BD4680BDC046A6
:103A100058040020F045002035A7010004ED00E027
:103A200090B587B000AFF860B9607A601723FB18D3
:103A30001B221A701723FB181B78084A08480F210D
:103A4000084CA047064AB968FB681800054B984720
:103A500000231800BD4607B090BDC0469C56030029
:103A6000740300209D42030080B584B000AFF8606D
:103A7000B9607A600220064B9847064B1800064B47
:103A80009847064B984700231800BD4604B080BDF8
:103A9000516E0100204E000011BB0100A53601004F
:103AA00080B584B000AFF860B9607A60034B984786
:103AB00000231800BD4604B080BDC046A5360100F5
:103AC00090B5A7B000AFF860B9607A60294B98470D
:103AD00003009422BA1813609423FB181B68264A2B
:103AE000142178184021254CA0471423FB181800F6
:103AF000234B98475423FB1802211800214B984769
:103B000003009422BA1813609423FB181B681E4A02
:103B1000142178184021194CA0471423FB181800D1
:103B2000174B98475423FB181B781B025422BA18D2
:103B300052781343AF225343002B02DA134A9446C0
:103B400063441B142D3B3B613B69114A14217818D7
:103B500040210A4CA0471423FB181800084B984733
:103B60001023FB1818000B4B984700231800BD4684
:103B700027B090BD79530100A45603009D42030075
:103B800065D70100C5530100BC560300FFFF0000CC
:103B9000D8560300856E010090B58FB000AFF86075
:103BA000B9607A601823FB1800221A701823FB18DA
:103BB00000225A701823FB1800221A701823FB18D1
:103BC00000225A701C23FB1800221A701C23FB18B9
:103BD0001422BA189A601C23FB180122DA811C23D4
:103BE000FB181822BA185A601C23FB1801229A816C
:103BF0002A4B18002A4B984700237B6342E07B6BDB
:103C0000284A29480F21294CA047274B1800244B4C
:103C1000984700233B632BE07B6BDAB23B6BDBB254
:103C2000D318DAB21C23FB181A701C23FB18642269
:103C3000642118001E4B98470300FB62FB6A002BAF
:103C40000CD11C23FB181B781A4A17480F21174C5C
:103C5000A047154B1800124B984706E0124B164A26
:103C60001A60114B18000E4B98473B6B01333B63B6
:103C70003B6B0F2BD0DD114B1800094B98477B6B2A
:103C800010337B637B6B7F2BB9DD0C4B1800044B2F
:103C9000984700231800BD460FB090BDE4560300BE
:103CA00065D7010018570300740300209D420300EC
:103CB000BD51010020570300582020008856030002
:103CC00090B585B000AF7860064B1868796800231E
:103CD0000A22054CA0470300FB60FB681800BD46A4
:103CE00005B090BD5C040020ADA0010080B584B09B
:103CF00000AF0200FB1D1A700F23FB18FA1D12788B
:103D0000D2091A700E23FB18FA1D127852091A7084
:103D10000D4BBB600F23FB181B78002B0FD10F231B
:103D2000FB181B789B0010229446BC446344083B5C
:103D30001A680E23FB181B78DB01D31800E0002360
:103D40001800BD4604B080BD0044004180B582B07B
:103D500000AF0200FB1D1A70FB1D1B781800034BFF
:103D6000984703001800BD4602B080BDED3C01003D
:103D700080B582B000AF78607B6800221A707B68E3
:103D800001225A707B6800229A70C046BD4602B07C
:103D900080BD000080B584B000AF0200FB1D1A702A
:103DA000BB1D0A1C1A70FB1D1B7818000D4B984791
:103DB0000300FB60FB1D1B781F22134001229A4069
:103DC0001300BB60BB1D1B78002B03D0FB68BA68D7
:103DD0009A6102E0FB68BA685A61C046BD4604B009
:103DE00080BDC0464D3D010080B594B000AF0823B2
:103DF000FB181800174B98470823FB1801221A706C
:103E00000823FB1819001420134B98470121142094
:103E1000124B9847BB1D00221A80114B5A221A7070
:103E20000F4BBA1D5A600E4B0122DA810C4B3A1D22
:103E30009A600B4B02229A81094BFF22FF21180046
:103E4000084B98470300FB64FB6C1800BD4614B098
:103E500080BDC046713D0100A9630200953D01008F
:103E600058460020A950010080B592B000AFBB1C9D
:103E700001221A80BB1C1B88DAB2E44B1A70E34B98
:103E800000225A70E24B5A221A70E14BDF4A5A6004
:103E9000DF4B0222DA81DE4B3A009A60DC4B0022D3
:103EA0009A81DB4BFF211800DA4B984703007B64B3
:103EB000D64B02221A70D54B00225A70D44B5A228C
:103EC0001A70D34BD14A5A60D14B0222DA81D04BBF
:103ED0003A009A60CE4B00229A81CD4BFF21180008
:103EE000CC4B984703007B64C84B04221A70C74B25
:103EF00001225A70C64B5A221A70C54BC34A5A60E7
:103F0000C34B0222DA81C24B3A009A60C04B0022B6
:103F10009A81BF4BFF211800BE4B984703007B647A
:103F2000BA4B05221A70B94B00225A70B84B5A226C
:103F30001A70B74BB54A5A60B54B0222DA81B44BBE
:103F40003A009A60B24B00229A81B14BFF211800CF
:103F5000B04B984703007B64AC4B0D221A70AB4BFF
:103F600000225A70AA4B5A221A70A94BA74A5A60CB
:103F7000A74B0222DA81A64B3A009A60A44B00229A
:103F80009A81A34BFF211800A24B984703007B6442
:103F90009E4B0E221A709D4B00225A709C4B5A2247
:103FA0001A709B4B994A5A60994B0222DA81984BBE
:103FB0003A009A60964B00229A81954BFF21180097
:103FC000944B984703007B64904B0F221A708F4BE1
:103FD00000225A708E4B5A221A708D4B8B4A5A60AF
:103FE0008B4B0222DA818A4B3A009A60884B00227E
:103FF0009A81874BFF211800864B984703007B640A
:10400000824B10221A70814B00225A70804B5A2228
:104010001A707F4B7D4A5A607D4B0222DA817C4BBD
:104020003A009A607A4B00229A81794BFF2118005E
:10403000784B984703007B64744B13221A70734BC0
:1040400064225A70724B5A221A70714B6F4A5A602E
:104050006F4B0222DA816E4B3A009A606C4B002261
:104060009A816B4BFF2118006A4B984703007B64D1
:10407000BB1C1A221A80664B5A221A70644BBA1C57
:104080005A60634B0122DA81614B3A009A60604BBF
:1040900002229A815E4BFF22FF2118005E4B984757
:1040A00003007B64594B1A221A703B001B787F2255
:1040B0001340DAB2554B5A70554B5A221A70544B72
:1040C000524A5A60524B0222DA81514B3A009A60AE
:1040D0004F4B00229A814E4BFF2118004D4B9847C1
:1040E00003007B64BB1C1D221A80494B5A221A70A4
:1040F000474BBA1C5A60464B0122DA81444B3A00C6
:104100009A60434B02229A81414BFF22FF21180003
:10411000414B984703007B643C4B1D221A703B00C7
:104120001B7820221343DAB2384B5A70384B5A228C
:104130001A70374B354A5A60354B0222DA81344BBC
:104140003A009A60324B00229A81314BFF211800CD
:10415000304B984703007B642C4B01221A702B4B89
:1041600000225A702A4B5A221A70294B274A5A6049
:10417000274B0222DA81264B3A009A60244B002218
:104180009A81234BFF211800224B984703007B6440
:104190001E4B04221A701D4B01225A701C4B5A22CE
:1041A0001A701B4B194A5A60194B0222DA81184BBC
:1041B0003A009A60164B00229A81154BFF21180095
:1041C000144B984703007B64104B05221A700F4B69
:1041D00000225A700E4B5A221A700D4B0B4A5A602D
:1041E0000B4B0222DA810A4B3A009A60084B0022FC
:1041F0009A81074BFF211800064B984703007B6408
:104200007B6C1800BD4612B080BDC0461846002029
:1042100058460020D14F0100A950010080B582B05E
:1042200000AF00233B6007E00120084B98470300E4
:104230007B603B6801333B603B68054A9342F3D99E
:104240007B681800BD4602B080BDC04655420100E3
:10425000E703000080B596B000AF0200BB1D1A80D6
:104260005623FB180C221A805623FB181B88DAB23F
:10427000114B1A70BB1D1B88DAB20F4B5A700F4BD3
:104280005A221A700D4B0C4A5A600C4B0222DA81EA
:104290000A4B0C22BA189A60084B00229A81074BED
:1042A000FF211800064B984703003B653B6D180043
:1042B000BD4616B080BDC0461846002058460020B6
:1042C000D14F010080B582B000AF0200FB1D1A7013
:1042D000064BFA1D127811001F220A40012191405D
:1042E0000A001A60C046BD4602B080BD00E100E091
:1042F00080B584B000AF78607B681B68FB60FB68AA
:104300005B7EDBB25BB2002B01DA012300E000230D
:104310001800BD4604B080BD80B586B000AF78609F
:104320007B681B683B613B691B7EDBB2FB60002343
:104330007B61FB680122134003D07B690122134398
:104340007B61FB680422134003D07B690222134384
:104350007B61FB680222134003D07B690422134374
:104360007B617B691800BD4606B080BD80B584B016
:1043700000AF786039607B681B68BB600023FB601E
:104380003B680122134003D0FB6801221343FB600A
:104390003B680222134003D0FB6804221343FB60F6
:1043A0003B680422134003D0FB6802221343FB60E6
:1043B000FB68DAB2BB681A76C046BD4604B080BD61
:1043C00080B584B000AF78607B681B68FB60C04636
:1043D0007B681800104B9847031EF9D117200F4B2C
:1043E0009847FB680F229A75FB680F221A76FB68C4
:1043F0001B78DBB202221343DAB2FB681A70C046A4
:104400007B681800044B9847031EF9D1002318005D
:10441000BD4604B080BDC046F1420100C542010066
:1044200080B584B000AF78607B681B68FB60C046D5
:104430007B6818000B4B9847031EF9D1FB681B7B68
:10444000DBB202221343DAB2FB681A73C0467B6800
:104450001800044B9847031EF9D1C046BD4604B06E
:1044600080BDC046F142010080B584B000AF7860E5
:1044700039607B681800184B9847020001231340ED
:1044800001D1052323E07B681B68FB60C0467B6885
:104490001800124B9847031EF9D1FB685B8B9AB248
:1044A0003B681A807B68012118000D4B98477B6898
:1044B0001800094B984702000423134006D07B687C
:1044C00004211800064B98471E2300E00023180023
:1044D000BD4604B080BDC04619430100F142010051
:1044E0006D43010080B58CB000AF3B001800154B48
:1044F00098473B00F02212059A603B0020221A7177
:104500003B0001221A703B00802292005A803B003F
:1045100002225A703B0000221A733B0001221A75D6
:104520003B0000229A743A000749084B1800084BD8
:104530009847064B1800074B9847C046BD460CB03D
:1045400080BDC0461922010000400042F84500200D
:1045500069280100C143010080B594B000AF7860C4
:104560004F23FB18E8221A700A220E4B1A700E4BCA
:1045700098470E4B98470E4B9847031E0ED0094B99
:104580001B78013BDAB2074B1A70064B1B78002BE5
:1045900004D10A22034B1A70064B98470A20064B97
:1045A0009847E8E7AC460020E5440100BD4501001E
:1045B000194601007946010011BB010080B500AF2A
:1045C0000F4B98470200FA239B005A43FA23DB0063
:1045D000D2180C4B1A60FA23D8000B4BFA22910028
:1045E000984703001A00094B1A60094B00221A7001
:1045F000084B00221A7001231800BD4680BDC0463A
:1046000059BF0100984600208923030094460020EA
:10461000B8460020C146002080B582B000AF124BE2
:104620001B7801225340DBB2002B18D00F4B984768
:104630000200FA239B0053437B600D4B1A687B6892
:10464000D31A002B01DD002309E0FA23DA007B688E
:10465000D218074B1A60074B98470123FFE7180051
:10466000BD4602B080BDC046C146002059BF010012
:1046700098460020B146010080B500AF0A4B1B6888
:10468000782B02DD084B78221A60074B1B681D2B24
:1046900002DC054B00221A60034B1800034B9847BD
:1046A000C046BD4680BDC046BC460020B16E01007C
:1046B00080B500AF044B9847044B9847044B012248
:1046C0001A70C046BD4680BDD54601002547010091
:1046D000B846002080B500AF0C4B18000C4B984733
:1046E0000C4A0A4B110018000B4B984703001A00A4
:1046F0000A4B1A70094B1B78052BF1D0054B1B8810
:104700001A00074B1A60C046BD4680BDF845002020
:1047100021440100F44500206944010015470020B0
:10472000C846002090B585B000AF974B1A68974BEC
:104730001B68D218944B1A60934B1A68944B1B68F1
:10474000D31A1A00934B1A60934B1B68934A9342F7
:1047500018DA934B1A68934B052110009847030011
:104760001A0013005B009A188A4B1B689A4209DAF8
:10477000894B1A688C4B1B689A4203DA864B1A687D
:10478000894B1A60844B1B68844A934209DD824B33
:104790001A68864B1B689A4203DD7F4B1A68834B6D
:1047A0001A607C4B1B68FA2B00DC97E07A4B1B6885
:1047B0007A4A934200DC91E07D4B1B78DBB2012208
:1047C0005340DBB2002B00D188E0754B1A68754B63
:1047D00005211000984703001A0013005B009A1887
:1047E0006C4B1B689A4200DB78E0714B01221A7017
:1047F000654B1A68664B1B68D31A1A00684B1A601F
:10480000614B1A68624B1A606A4B1B78002B11D0FF
:10481000684B00221A700023FB6008E0604B1968A7
:10482000654BFA689200D150FB680133FB60FB686E
:10483000092BF3DD614B1B78002B06D05F4B002268
:104840001A705C4B01221A709AE00A23FB180022AE
:104850001A8000237B6017E07B685A1C564B92003D
:10486000D158554B7A689200D150534B7A689200D8
:10487000D35899B20A23FB180A22BA1812888A1848
:104880001A807B6801337B607B68082BE4DD444B36
:104890001A68494B5A62484B5B6A99B20A23FB1863
:1048A0000A22BA1812888A181A800A23FC180A23C6
:1048B000FB181A88424B0A211000984703002380F6
:1048C0000A23FB181A88374B11003E48984703000B
:1048D0001A003D4B1A603D4B01221A702E4B1B688B
:1048E0002E4A934222DA324B1B78DBB2002B1DD0CA
:1048F0002F4B00221A702D4B1A682B4B1B68D21AB3
:10490000334B1A60324B1B68002B00DA01335B100B
:104910001A00254B1B68D2182E4B1A602D4B1A68B3
:10492000224B1A602B4B1A681F4B1A60194B1B68DD
:10493000294A934224DD194A264B1A601B4B8022D8
:1049400092001A60184B802292001A600E4B1A686F
:104950000F4B1A60194B01221A70164B00221A7065
:104960001A4B00221A70184B00221A600C4B962228
:1049700092001A600E4B00221A70154B64221A60C6
:10498000BD4605B090BDC0469C4600209446002020
:10499000B046002068460020C846002026020000DD
:1049A000B44600209D240300A8460020184700209C
:1049B000A0460020C04600206C460020A1460020F2
:1049C0008923030060EA0000BC4600201447002051
:1049D000A4460020CC460020C409000080B582B067
:1049E00000AF0200FB1D1A70064BFA1D1278110071
:1049F0001F220A40012191400A001A60C046BD46AC
:104A000002B080BD00E100E080B584B000AF786006
:104A10007B681B68FB60FB68DB69072213405A1E3A
:104A20009341DBB21800BD4604B080BD80B582B0B2
:104A300000AF7860C0467B681800044B9847031E9F
:104A4000F9D1C046BD4602B080BDC046094A01004A
:104A500080B582B000AF78607B6864221A607B68A2
:104A60001B4A5A607B6800229A607B6800221A7396
:104A70007B6800221A767B68802292031A617B6829
:104A800001225242DA827B68012252429A827B687A
:104A90000022DA617B6800221A627B6824220021EE
:104AA00099547B6800229A627B682C2200219954D9
:104AB0007B682D22002199547B682E220021995475
:104AC0007B68D7221A86C046BD4602B080BDC0466C
:104AD000480D000080B584B000AF78607B681B682B
:104AE000BB600023FB607B681800144B9847BB68D1
:104AF0001B6802221A43BB681A607B681B68180097
:104B00000F4B9847030018000E4B98470CE0FB68CA
:104B10000133FB607B68DB881A00FB689A4203D88C
:104B2000BB6810225A8306E0BB685B8B9BB21A00FD
:104B300010231340EBD0BD4604B080BD2D4A0100C8
:104B400079700200DD49010080B582B000AF786065
:104B50000A00FB1C1A707B685B7EDBB25AB2FB1C3E
:104B60001B78012199400B005BB213435BB2DAB2B0
:104B70007B685A76C046BD4602B080BD90B591B004
:104B800000AF0023FB633A23FB1800221A703B1D81
:104B90001800214B98473B1D204ADA613B1D204AF3
:104BA0001A623B1DFA229200DA823B23FB18032291
:104BB0001A701EE03A23FC183A1D1A491A4B1800C5
:104BC0001A4B9847030023703A23FB181B78002BDD
:104BD00004D13A23FB181B78FB630FE0124B18003B
:104BE000134B98473B23FB181A783B23FB18013AD9
:104BF0001A703B23FB181B78002BDBD1FB6B002BBF
:104C000004D1094B18000B4B984700E0C046FB6BE2
:104C10001800BD4611B090BD514A010002000800C5
:104C2000020009000008004220470020A174010092
:104C3000D5750100D54A010080B584B000AF786019
:104C40000E4B00221A700D4B01229A600023FB606C
:104C50000B4B1B680C22BA1811001800094B98471F
:104C6000094B00221A70FB68002B03D0074B8022EF
:104C700052051A60C046BD4604B080BD64040020E1
:104C80004847002035A701006004002004ED00E043
:104C900080B584B000AF78600E4B00221A700D4BC7
:104CA00001229A600023FB600B4B1B680C22BA1890
:104CB00011001800094B9847094B00221A70FB6835
:104CC000002B03D0074B802252051A60C046BD4618
:104CD00004B080BD640400204847002035A70100CF
:104CE0006004002004ED00E080B584B000AF78607F
:104CF0000E4B00221A700D4B01225A600023FB60FC
:104D00000B4B1B680C22BA1811001800094B98476E
:104D1000094B01221A70FB68002B03D0074B80223D
:104D200052051A60C046BD4604B080BD6404002030
:104D30004847002035A701006004002004ED00E092
:104D400080B500AF1149124B00221800114B984753
:104D50000F4B00211800104B984710490C4B0122B3
:104D600018000C4B98470A4B012118000A4B984732
:104D70000B49074B02221800064B9847044B0221AF
:104D80001800054B9847C046BD4680BD394C010010
:104D90002047002051310100494B0100914C010096
:104DA000E94C010080B582B000AF00237B60144B5A
:104DB000984703007B607B68002B1AD1114B984702
:104DC0000120114B98470200104B1A60032200216A
:104DD00001200F4B984702000E4B1A600B4B1B68CB
:104DE000002B03D00B4B1B68002B03D106237B60E9
:104DF00000E0C0467B681800BD4602B080BDC046DA
:104E00007D4B0100414D01006DA001001C470020B9
:104E1000059E01004847002090B585B000AF78603E
:104E20000023FB607B68002B03D07B685B68002B52
:104E300003D108235B42FB601FE07B681B789AB2BA
:104E4000104B1A807B685A680E4B5A607B68DA896F
:104E50000C4B5A800B23FC180A4A0B4B110018000C
:104E60000A4B9847030023700B23FB181B78002B79
:104E700003D006235B42FB60C046FB681800BD46BA
:104E800005B090BD4C47002020470020D5330100DD
:104E900090B585B000AF78600023FB607B68002B85
:104EA00003D07B685B68002B03D108235B42FB6067
:104EB0001FE07B681B789AB2104B1A807B689A6857
:104EC0000E4B5A607B689A890C4B5A800B23FC1856
:104ED0000A4A0B4B110018000A4B98470300237035
:104EE0000B23FB181B78002B03D006235B42FB60CF
:104EF000C046FB681800BD4605B090BD4C47002079
:104F000020470020F132010090B583B000AF0023AC
:104F10007B60094B1868002300220021074CA04742
:104F20000300012B02D014235B427B607B681800D6
:104F3000BD4603B090BDC0461C470020ADA0010097
:104F400080B584B000AF78600023FB60084B1B681D
:104F50007A6811001800074B98470300012B02D014
:104F60001D235B42FB60FB681800BD4604B080BD9A
:104F70001C470020BDAD010080B584B000AF786053
:104F80000023FB60044B1A687B681A60FB681800FA
:104F9000BD4604B080BDC0464847002080B500AF84
:104FA000024B1B781800BD4680BDC046600400203F
:104FB00080B582B000AF0200FB1D1A70034BFA1DD2
:104FC00012781A70C046BD4602B080BD6004002051
:104FD00080B584B000AF786039600023FB600023A7
:104FE000BB6096235B001800284B98470300FB60CA
:104FF000FB68002B38D10823FB181800244B984776
:105000000300FB60FB68002B30D17B681800214B4C
:1050100098470300FB60FB68002B2AD1BB683A6805
:10502000110018001C4B98470300012B11D11B4B9A
:105030009847031E11D00020194B9847FB68002B9E
:1050400003D021235B42FB6014E003235B42FB603F
:1050500010E003235B42FB600CE0124B9847020018
:10506000FB681343FB6002E0C04600E0C046FB68FB
:1050700007E0C0460B4B98470200FB681343FB60F8
:10508000FB681800BD4604B080BDC046414F01001A
:10509000794F0100194E0100BDAD01009D4F010087
:1050A000B14F0100094F010080B586B000AFF86034
:1050B000B9607A6000237B6100233B6196235B002B
:1050C0001800354B984703007B617B69002B55D155
:1050D0001023FB181800314B984703007B617B6954
:1050E000002B4DD1FB6818002D4B984703007B61C6
:1050F0007B69002B47D13B697A6811001800294B66
:1051000098470300012B18D1274B9847031E06D060
:105110000020264B984703235B427B6134E0BB6849
:105120001800234B9847FB681800224B9847030050
:105130007B617B69002B04D026E003235B427B610B
:1051400022E03B697A6811001800164B984703006B
:10515000012B0AD1144B9847031E0AD00020134B91
:10516000984703235B427B610EE003235B427B6134
:105170000AE0114B984703007B6102E0C04600E063
:10518000C0467B6903E0C0460B4B98477B6918001B
:10519000BD4606B080BDC046414F0100794F0100B9
:1051A000194E0100BDAD01009D4F0100B14F01003E
:1051B00011BB0100914E0100094F010080B586B07E
:1051C00000AFF860B9607A6000237B6100233B6127
:1051D00096235B001800244B984703007B617B6992
:1051E000002B33D11023FB181800204B98470300E5
:1051F0007B617B69002B2BD1FB6818001C4B984707
:1052000003007B617B69002B25D13B697A68110023
:105210001800184B98470300012B13D1164B9847E1
:10522000031E06D00020154B984703235B427B6189
:1052300012E0BB681800124B9847124B98470300C6
:105240007B6106E003235B427B6105E0C04600E032
:10525000C0467B6903E0C0460A4B98477B6918004B
:10526000BD4606B080BDC046414F0100794F0100E8
:10527000194E0100BDAD01009D4F0100B14F01006D
:1052800011BB0100094F010090B5A7B000AF7860D5
:105290002D4B18002D4B98472D4B98470300942217
:1052A000BA1813609423FB181B682A4A1021781837
:1052B0004021294CA0471023FB181800234B984786
:1052C0000023FB605023FB1802211800234B984752
:1052D00003009422BA1813605023FB181B781B029A
:1052E0005022BA1852781343AF225343002B02DAEC
:1052F0001B4A944663441B142D3BFB60FB68322B16
:1053000016DD184B984703009022BA181360164B0D
:10531000984703009022BA181360144B9847030073
:105320009022BA1813600C23FB181800104B9847F2
:105330000C23FB1818000E4B9847FA239B0018000B
:105340000C4B9847BEE7C0467857030065D701006D
:1053500079530100805703009D420300C5530100AB
:10536000FFFF0000E93D0100693E01001D42010010
:10537000856E010011BB010080B582B000AF3B001B
:105380000D4A12881A800D4B70221A700B4B3A008E
:105390005A600A4B0222DA81084B00229A81074B9D
:1053A000FF211800064B984703007B607B681800BC
:1053B000BD4602B080BDC046985703005847002044
:1053C000D14F010080B584B000AF78600A00FB1CAB
:1053D0001A700823FB18134A12881A80124B702285
:1053E0001A70114B0822BA185A600F4B0222DA8148
:1053F0000D4B7A689A600C4B04229A810A4BFF226B
:10540000FF211800094B98470300FB60FB68002B45
:1054100003D0074B1800074B9847FB681800BD46A0
:1054200004B080BDC057030058470020A9500100B8
:105430009C57030065D7010090B583B000AF04000E
:1054400008001100FB1D221C1A70BB1D021C1A70E3
:105450007B1D0A1C1A70084BFA1D12781A70074B34
:10546000BA1D12781A70064B7A1D12781A70C0464F
:10547000BD4603B090BDC046780400201400002053
:105480001500002080B584B000AF0200FB1D1A702B
:105490000F23FB18FA1D1278D2091A700E23FB187D
:1054A000FA1D127852091A700D4BBB600F23FB18BE
:1054B0001B78002B0FD10F23FB181B789B001022A9
:1054C0009446BC446344083B1A680E23FB181B78BF
:1054D000DB01D31800E000231800BD4604B080BDF6
:1054E0000044004180B582B000AF0200FB1D1A707D
:1054F000FB1D1B781800034B984703001800BD469E
:1055000002B080BD8554010080B584B000AF0200B8
:10551000FB1D1A70BB1D0A1C1A70FB1D1B7818009E
:105520000D4B98470300FB60FB1D1B781F221340A7
:1055300001229A401300BB60BB1D1B78002B03D0D7
:10554000FB68BA689A6102E0FB68BA685A61C046B3
:10555000BD4604B080BDC046E554010080B500AF33
:10556000024B00221A70C046BD4680BD9504002043
:1055700080B582B000AF0200FB1D1A70FB1D1B78C6
:105580005BB2DB435BB2064A127852B213405BB2A5
:10559000DAB2034B1A70C046BD4602B080BDC046A9
:1055A0009504002080B582B000AF0200FB1D1A7088
:1055B000054B1A78FB1D1B781343DAB2024B1A70A5
:1055C000C046BD4602B080BD9504002080B582B0C3
:1055D00000AF0200FB1D1A70064B1B78FA1D1278F3
:1055E0001340DBB25A1E9341DBB21800BD4602B035
:1055F00080BDC0469504002090B585B000AF7860AE
:1056000039607B68002B02D03B68002B01D100235E
:1056100013E00F23FC1839680A4B002218000A4BCC
:10562000984703002370074B1800084B98470F2337
:10563000FB181B785A425341DBB21800BD4605B037
:1056400090BDC046C8060020FDD20200FDDC02006D
:1056500080B59EB000AFF860B960FB1D1A7076236C
:10566000FB1801221A807423FB1800221A806E2373
:10567000FB1800221A807223FB1800221A802423B0
:10568000FB18180041231A000021924B9847182359
:10569000FB18180009231A0000218E4B9847142389
:1056A000FB1800221A600023BB667123FB1800223E
:1056B0001A70BB68002B01D1002306E1BA68FB68B1
:1056C00011001800844B984703001A00012353402F
:1056D000DBB2002B01D00123F7E0BB6818007F4B41
:1056E00098470300402B01D90023EEE0BB682E2130
:1056F00018007B4B98470300BB66BB6E002B52D053
:10570000BB6E1800754B984702006E23FB181A8079
:105710006E23FB181B88072B37D87123FB18012237
:105720001A70BA6E1823FB18110018006D4B9847B9
:10573000BB681800694B984702006E23FB181B8852
:10574000D31A3C2B11D97423FB186E22BA18128875
:105750003C218A1A1A807423FB181A88B9682423FA
:10576000FB181800604B98472AE0BA6EBB68D21A43
:105770007423FB181A807423FB181A88B968242331
:10578000FB181800584B98471AE07423FB183C226A
:105790001A807423FB181A88B9682423FB18180090
:1057A000514B98470CE07423FB183C221A80742359
:1057B000FB181A88B9682423FB1818004A4B98472D
:1057C0007423FB181B887422BA18591C11801A0004
:1057D0002423FB182D2199547623FB1800221A80CC
:1057E0007223FB1801221A8010E07223FA18722328
:1057F000FB181B88191C8900CB18DB181380762333
:10580000FB181A887623FB1801321A807623FB18BE
:105810001B88022BE9D97623FB1801221A804BE062
:105820007623FB181A8831491423FB181800304BD3
:1058300098477423FB181B882422BA18D318142203
:10584000B91803221800284B98477123FB181B78BE
:10585000002B0CD07423FB181B8803332422BA18A6
:10586000D3181822BA18110018001E4B9847242389
:10587000FA18FB6811001800174B984703001A002C
:1058800001235340DBB2002B0FD0FB1D1A78BB68FD
:10589000002118000F4B98472423FA18BB68110009
:1058A0001800104B984701230FE07623FB181A8845
:1058B0007623FB1801321A807623FA187223FB181C
:1058C00012881B889A42ABD300231800BD461EB035
:1058D00080BDC04643400300F9550100FB4303006F
:1058E00055440300AF4303002B440300D857030083
:1058F0000143030090B583B002AF0120224B9847CB
:1059000003001A0001235340DBB2002B05D01F4BCC
:10591000190001201E4B984732E002201A4B98478D
:1059200003001A0001235340DBB2002B05D0194BB2
:1059300019000120164B984722E00420124B98478B
:10594000031E05D0144B19000120114B984717E096
:1059500008200D4B9847031E05D0104B190001205D
:105960000B4B98470CE00E4B19000120084B984751
:105970000C490D4800230093002301220B4CA04743
:10598000BD4601B090BDC046CD550100E0570300B3
:1059900051D801000C580300385803006458030024
:1059A00090580300BC580300C04700205109030071
:1059B000B0B586B000AF786039607B68002B02D04C
:1059C0003B68002B05D1584B19000120574B9847D5
:1059D000A6E00820564B984703001A0001235340C5
:1059E000DBB2002B55D000237B61524B30221A7062
:1059F000504B3A225A70504B7B6102E07B69013B6D
:105A00007B617B691B782F2BF8D17B6918004B4B8E
:105A100098470300012B24D97B6901337B617A69A4
:105A2000474B11001800474B98474249464B4022CC
:105A30001800464B98473F4A454B190001203B4B05
:105A400098471323FC183B493F4B0A221800414B4F
:105A50009847030023701323FB181B78002B12D0E8
:105A600008E03D4B19000120304B984720203B4B6C
:105A7000984755E01323FB181A78394B1900012079
:105A80002A4B98474CE0374B00221A600820334BD2
:105A900098477B68002B43D00023FB601323FC183E
:105AA0000C23FB183A68796827482F4DA847030054
:105AB00023701323FB181B78002B0CD0224B1800EB
:105AC0002A4B98472020254B9847294B1900012045
:105AD000164B984724E0234B1A68FB68D218214BD9
:105AE0001A60204B1A68234B1B68234901200F4C76
:105AF000A0471C4B1A681F4B1B689A4210D3124BCD
:105B000018001A4B98471D4B19000120074B984766
:105B1000002117201A4B98471020104B9847C04679
:105B2000BD4606B0B0BDC046E458030051D80100E0
:105B3000CD5501009C000020E2580300FB43030008
:105B40009E000020AF430300C8060020515601000C
:105B500048590300FDD2020008590300A555010071
:105B600070590300F00600202DD80200FDDC020071
:105B7000A4590300EC060020E0590300145A030066
:105B80000955010090B585B000AFF860B9607A6042
:105B9000BB68042B00D977E0BB689A003C4BD31854
:105BA0001B689F463B4B190001203B4B98476BE01D
:105BB0003A4B19000120384B98470420384B98473E
:105BC00062E07B681B881A007B685B6835490120AE
:105BD000314CA0477B681B88C82B0DD17B685A6865
:105BE000314B1A60314B00221A607B685A6880235F
:105BF0009B009A4243D803E02020294B984743E07A
:105C00007B689A687B685B6819001000284B98478E
:105C10001020234B984732E07B685A687B681B68EA
:105C200019001000224B98477B681B7A002B28D064
:105C300010201B4B984724E07B681A681D4B190005
:105C40000120154B98477B681B680B331BD108203C
:105C5000194B9847031E06D0184B1800184B98474D
:105C60000820184B98470420134B9847031E02D076
:105C70000420144B9847144B9847C04603E0C04695
:105C800002E0C04600E0C046BD4605B090BDC0463B
:105C9000B4610300485A030051D80100805A030040
:105CA000A5550100AC5A0300EC060020F0060020C8
:105CB000B1590100E85A0300CD550100C806002083
:105CC000FDDC020071550100F558010080B582B07D
:105CD00000AF3A60FB1D021C1A70BB1D0A1C1A7033
:105CE0003A68BB1D1978FB1D1B785BB21800034B8B
:105CF0009847C046BD4602B080BDC046610603005D
:105D0000B0B586B004AF786039603B68FF221340BD
:105D10001C003B681B0A1A00FF2313403A68120C50
:105D20001100FF220A403968090E0D007868094900
:105D3000029501920093230002000120064CA04727
:105D40003A687B6811001800044B9847C046BD466E
:105D500002B0B0BD185B030051D80100C5070300B5
:105D600090B587B002AF02003960FB1D1A70FB1DB1
:105D70001B782C2B02D0322B3DD06FE03B68FB60B0
:105D8000FB681B78012B07D1364B19000120364BDD
:105D90009847364B98475EE0FB681B78002B5AD13A
:105DA000334B19000120304B98470220314B984764
:105DB0000820314B9847031E06D0304B1800304B5B
:105DC000984708202B4B984704202B4B9847031EDD
:105DD00002D00420274B98472A4B012118002A4B58
:105DE00098472A4A2A48FF230093130002220621DB
:105DF000284CA0472FE03B68BB60BB681B781800AD
:105E0000BB6801331B781C00BB6802331B781A0087
:105E1000BB6803331B7820490193009223000200E2
:105E20000120114CA04702201C4B98471C4B1B78AB
:105E3000012B02D11B4B98470FE01B4A114B11005D
:105E400018001A4B9847031E07D0194B1900012060
:105E5000054B984701E0C04600E0C046C046BD463D
:105E600005B090BD485B030051D80100311E02000F
:105E7000685B030071550100CD550100C806002084
:105E8000FDDC0200F40600200DF302008C5B030031
:105E9000985B03005D190200A05B0300A55501009B
:105EA00094040020F5580100C4570300D9F1020002
:105EB000C85B030090B583B000AF294B9847294BCE
:105EC00019000120284B9847FC1D0020274B9847BC
:105ED00003002370FB1D1B78012B10D1244B1900EC
:105EE0000120214B9847234B190001201E4B984756
:105EF000C0460020204B98470300022BF9D1FB1D20
:105F00001B78002BE0D11D4B19000120164B984740
:105F10008C239A001A4B002118001A4B9847BC1D7D
:105F2000174B19000020184B984703002370BB1D26
:105F30001B780B2B07D1BB1D1A78144B19000120BD
:105F4000094B984708E0124B19000120064B98476F
:105F50000120104B9847C046BD4603B090BDC046D7
:105F600069E60100EC5B030051D8010045EB01003C
:105F7000245C03004C5C0300B9E60100805C030074
:105F80009804002043400300A5D20200A45C030053
:105F9000D45C0300A555010080B582B000AF3B1D65
:105FA0001800084B98473A1D074B11001800074B83
:105FB0009847054B1800064B9847C046BD4602B0AF
:105FC00080BDC046F51D030068470020191E030070
:105FD000051F030080B588B000AF3B001800124BCE
:105FE00098473B00802292001A613B000F4A5A609A
:105FF0003A000F4B110018000E4B98470300FB614D
:10600000FB69002B06DAFA690B4B190001200B4BD8
:106010009847FEE70A4A064B11001800094B9847BB
:10602000C046BD4608B080BD890403006847002013
:10603000C0470020D5040300F85C030051D80100DC
:10604000855B0100C105030080B582B000AF3A60F6
:10605000FB1D021C1A70BB1D0A1C1A703A68BB1D7E
:106060001978FB1D1B785BB21800034B9847C0469C
:10607000BD4602B080BDC04681F1020080B582B04D
:1060800000AF786039603A687B6811001800034BF4
:106090009847C046BD4602B080BDC046B5F102007B
:1060A00090B589B002AF78601023FB1800221A70F7
:1060B0001023FB1800225A701023FB1800229A703C
:1060C0007B685B685A687B685B689B682A4901202B
:1060D0002A4CA0477B681B689B682949042218004A
:1060E000284B9847031E43D17B681B689B68043389
:1060F000FB6000237B6115E07C69631C7B61FB68AE
:106100000C22B9180A2218001F4B98470300DAB274
:106110001023FB181A55FB681B782C2B0AD1FB683F
:106120000133FB607B69022B05DCFB681B78002BCD
:10613000E2D100E0C0461023FB181B781A001023A0
:10614000FB185B7818001023FB189B780F4900930D
:1061500003000120094CA0471023FB1818781023D6
:10616000FB1859781023FB189B781A00084B9847A6
:10617000C046BD4607B090BD405D030051D8010048
:10618000485D030009440300B5450300505D03006A
:106190003954010090B58BB000AF78600C23FB1828
:1061A0001422FF211800484B98477B681B689B68A6
:1061B000464909221800464B9847031E66D1454BB5
:1061C00019000120444B98477B685B685A687B68DC
:1061D0005B689B68414901203F4CA0477B681B6876
:1061E000DA687B681B689B683D4901203A4CA047F0
:1061F00000237B627B681B689B680933BB6015E0EA
:106200007C6A631C7B62BB680822B9180A221800EA
:10621000344B98470300DAB20C23FB181A55BB68BD
:106220001B782C2B0AD1BB680133BB607B6A132B14
:1062300005DCBB681B78002BE2D100E0C0462A4B8E
:1062400019000120244B984700233B620DE00C23EA
:10625000FA183B6AD3181B781A00244B1900012046
:106260001D4B98473B6A01333B623B6A132BEEDDC3
:106270000C23FB1818001E4B98470300012B1ED15E
:106280001C4B19000120144B984718E01A4B1900B9
:106290000120114B98477B685B685A687B685B6894
:1062A0009B680E4901200C4CA0477B681B68DA688C
:1062B0007B681B689B680A490120074CA047C046C1
:1062C000BD460BB090BDC04643400300645D030073
:1062D00009440300705D030051D80100405D0300D4
:1062E0008C5D0300B5450300945D0300A85D0300C9
:1062F000C13C0100AC5D0300C85D030090B593B0E4
:1063000000AF78601A4B190001201A4B98477B6840
:106310001B689B68184A082178184021174CA04731
:106320000823FB181800164B98477B681B689B686E
:106330001A78144B1B789A4204D100210B20124B7F
:10634000984710E07B681B689B681A780F4B1B7896
:106350009A4204D101210B200B4B984703E00C4BD0
:106360001800074B9847C046BD4613B090BDC046C5
:10637000F85D030051D80100145E03009D42030044
:1063800065D70100205E030009550100245E03006B
:10639000285E030090B58BB006AFF860B9607A60F4
:1063A000BB68012B3BD0052B5ED0002B00D061E0F9
:1063B0007B681B68002B25DB304B19000120304B1C
:1063C00098473049304AF868002305930023049326
:1063D0000023039300230293002301932A4B00938D
:1063E0000B000121294CA047031E05D0284B1900A2
:1063F0000120234B98473DE0264B19000120204BFC
:10640000984737E0244A254B190001201C4B984738
:10641000214AFB6811001800214B98472AE07B684D
:106420001B78002B17D11F4B1F49F86802221F4C05
:10643000A0471F4B1F49F86802221C4CA0471E4B67
:106440001E49F8680222194CA0471D4B1900012073
:106450000B4B98470EE07B681B781A00194B19000C
:106460000120074B984705E0174B19000120044B0A
:106470009847C046C046BD4605B090BD9C5E03002F
:1064800051D80100B85E0300C45E030021F202008F
:10649000CC5E0300F45E0300C4570300105F0300EA
:1064A000D9F1020095610100485F0300C1F30200C9
:1064B000A1600100785E0300FD6201005C5F0300E3
:1064C000705F0300845F0300B85F030080B588B08D
:1064D00000AF3B1D18001F4B98473B1D1E4A9A609A
:1064E0003B1D80229200DA603B1D1C4A1A613B1D55
:1064F000802292005A613B1D194A1A803B1D194A9D
:106500009A803A1D184B11001800184B9847030049
:10651000FB61FB69002B06DAFA69154B19000120B3
:10652000144B9847FEE7144A0F4B11001800134B09
:1065300098470300FB61FB69002B06DAFA69104BF0
:10654000190001200B4B9847FEE7C046BD4608B036
:1065500080BDC04619F102002C0700202C09002044
:106560005B07000070170000F406002069F00200CD
:10657000CC5F030051D801009563010059F102007E
:106580000060030080B584B000AF3B1D18000B4BCA
:1065900098473B1D37221A603B1D00225A603B1D65
:1065A00001221A723B1D0222DA723B1D19000720DC
:1065B000034B9847C046BD4604B080BD51620200FF
:1065C0008562020080B500AF064B0022072118004B
:1065D000054B984700210720044B9847C046BD460D
:1065E00080BDC046F1650100515E0200B55E02004B
:1065F000B0B500AF0C4B1B685A1C0B4B1A600A4B12
:106600001B68282B02D9084B01221A60064B1B6815
:10661000064A07483F21074CA047074B01221A7042
:10662000C046BD46B0BDC04698000020346003009F
:10663000580000209D4203002C0B002080B500AFC5
:10664000154A164B11001800154B9847031E08D029
:10665000144B19000120144B984702E00020134B03
:1066600098470E4B34229B5C002BF7D1104B984778
:10667000104B01221A70104A104B11001800104BD9
:106680009847104B9847104B9847104B03221A70AD
:10669000C046BD4680BDC046C4570300F406002076
:1066A0000DF30200C85B030051D80100411902003C
:1066B000FD4E020094040020015D0100CD5C01004C
:1066C000454F0200AD4E0200F5580100790400204C
:1066D00090B585B000AF09E000202A4B98472A4BBF
:1066E00018002A4B98470520294B98471020294B22
:1066F000984703001A0001235340DBB2002B09D056
:106700002020244B984703001A0001235340DBB29A
:10671000002BE1D1204B9847FA239B0018001C4B1B
:1067200098471E4B00221A703B001D4A13CA13C320
:106730003B0030221A700F23FC183900194B0A2233
:106740001800194B9847030023700F23FB181B7880
:10675000002B08D00F23FB181A78144B19000020C7
:10676000134B984703E0134B1800134B98470D4BFE
:106770001800124B9847124B00221A70C046BD46B3
:1067800005B090BD41190200684700203520030084
:1067900011BB0100CD550100FD4E02009404002004
:1067A0006C600300C8060020FDD2020048600300B0
:1067B00051D801005860030065D70100FDDC0200DC
:1067C0007904002080B500AF184B9847184B9847C4
:1067D000184A194B11001800184B9847184B984746
:1067E000184B34229B5C01225340DBB2002B0CD0AF
:1067F000154A144B11001800144B9847031E04D07F
:10680000134B19000120134B98470E4B34229B5C0D
:10681000002B04D0104B190001200E4B98470F4B52
:1068200001221A70C046BD4680BDC046FD4E020022
:10683000CD6401007D60010049600100454F020008
:10684000AD4E0200F4060020C4570300D9F1020047
:10685000C85B030051D80100786003007904002070
:1068600080B500AF00200D4B98470D4B18000D4B25
:1068700098470D4B98470D4B98470D4B98470D4B3C
:1068800098470D4B34229B5C002B04D00A4B6421AB
:1068900018000A4B9847C046BD4680BD411902000A
:1068A0006847002035200300356A0100C1680100F7
:1068B0004D690100C1690100F406002009F40200DD
:1068C00090B585B002AF184B1B6839000022180044
:1068D000164B98470300012B21D13B0000229B5E01
:1068E0001C003B0002229B5E19003B0004229B5EC1
:1068F0000F4A10480193009123003F210E4CA047FE
:106900000C4B18000D4B984704000A4A0C490D48DF
:10691000002301930123009323000B4CA047C046A2
:10692000BD4603B090BDC0468404002065A90100A7
:1069300094600300180000209D420300FB43030005
:106940005C5F0300F406002055F3020090B585B0AB
:1069500002AF00237B60114B1B68391D0022180019
:106960000F4B98470300012B14D17B680D4A0E484A
:106970003F210E4CA0470C4B18000D4B98470400CC
:10698000094A0C490C48002301930123009323007A
:106990000A4CA047C046BD4603B090BD8C04002001
:1069A00065A90100B8600300180000209D420300A3
:1069B000FB430300BC600300F406002055F3020013
:1069C00090B585B002AF00237B60114B1B68391D69
:1069D000002218000F4B98470300012B14D17B684D
:1069E0000D4A0E483F210E4CA0470C4B18000D4B92
:1069F00098470400094A0C490C48002301930123DD
:106A0000009323000A4CA047C046BD4603B090BD8A
:106A10009004002065A90100B86003001800002060
:106A20009D420300FB430300D8600300F4060020EE
:106A300055F3020090B58BB002AF394B1B680822AA
:106A4000B91800221800374B98470300012B63D177
:106A5000354B364A03CA03C312881A800023FB61F0
:106A60002DE00823FA18FB69D3181B78FF2B2AD0D6
:106A70000823FA18FB69D3181B782D4A3800032124
:106A80002C4CA0473A00284B110018002A4B98477D
:106A9000FB6901330822BA18D35CFF2B0CD0FB69C9
:106AA0000133132B08DC3B002C221A803A001E4BCA
:106AB00011001800204B9847FB690133FB61FB690B
:106AC000132BCEDD00E0C046174B18001B4B984738
:106AD00003001A00144BD218194B1000190003239D
:106AE0001A00184B9847104B19000120164B984775
:106AF000164B19000120144B98470B4B18000F4BF5
:106B000098470400084A12491248002301930123C0
:106B100000932300104CA047C046BD4609B090BD6D
:106B20008004002065A9010018000020645D0300B6
:106B3000B86003009D42030081430300FB43030050
:106B4000F46003000D40030051D80100F860030019
:106B5000FC600300F406002055F3020090B58DB0F0
:106B600002AF78606420894B9847894B9847002290
:106B700004210520874B98470200874B1A600022AA
:106B800006210520834B98470200844B1A6000229F
:106B9000142102207F4B98470200814B1A6000228B
:106BA000022105207B4B984702007E4B1A60002291
:106BB00004210520774B984702007B4B1A60002286
:106BC00004210520734B98470200784B1A6000227D
:106BD000022105206F4B98470200724B1A606E4BE2
:106BE0001B68002B13D0704B1B68002B0FD06F4B12
:106BF0001B68002B0BD0694B1B68002B07D0684B20
:106C00001B68002B03D0674B1B68002B03D1684B1C
:106C10001800684B9847684B1800664B9847674BBD
:106C20009847674B9847674B9847674B9847674B20
:106C30009847674B98470C23FB181822002118002F
:106C4000644B9847644B98470C23FB18634A1A60BF
:106C50002723FC180C23FB181800614B98470300EE
:106C600023702723FB181B785BB2002B09D0272346
:106C7000FB1800229A565B4B190001205A4B98478B
:106C8000FEE75A4A5A4B19000120574B9847594B77
:106C90009847594A594B11001800594B9847594A7F
:106CA0005248FF230093130002220621564CA047AE
:106CB00006E00020554B9847554B1800554B984718
:106CC0000220554B984703001A0001235340DBB2C2
:106CD000002BEED1FA239B0018002C4B98474F4B0A
:106CE00001221A704D4B1B785BB2012B0BD002DCDA
:106CF000002B05D010E0022B08D0032B09D00BE0AD
:106D0000474B98470CE0474B984709E0464B98475C
:106D100006E0464B984703E0404B00221A70C046FD
:106D20000B23FB1800221A701B4B1B680B22B9188F
:106D3000002218003E4B98470300012B05D10B237E
:106D4000FB181B785AB2354B1A703A4B1B78DBB2E2
:106D5000002B17D0384B1800384B98470400364AA0
:106D60003749384800230193012300932300364C10
:106D7000A047314A354B190001201B4B98472D4B3A
:106D800000221A706420014B9847ABE711BB010049
:106D90005D550100059E01007C0400208404002054
:106DA00080040020880400208C040020900400202F
:106DB0001061030065D7010038610300995F01008D
:106DC000D55F0100CD640100B55E0100856501005D
:106DD000C56501004340030075FC0100615D0100D1
:106DE0004D1702005461030051D80100985B030065
:106DF00080610300AD4E02007D600100496001002A
:106E0000454F02008C5B03005D190200411902002E
:106E10006847002035200300CD550100790400208B
:106E2000C5670100616801003D660100D16601008F
:106E300065A901002C0B002058000020FB43030033
:106E4000BC600300F406002055F30200A4610300B7
:106E500090B583B000AF0200FB1D1A70FB1D1B78BC
:106E6000032B06D8054B1868F91D00230A22044C91
:106E7000A047C046BD4603B090BDC0467C0400207C
:106E8000ADA0010090B585B000AF7860064B1868E2
:106E9000796800230A22054CA0470300FB60FB68C9
:106EA0001800BD4605B090BD8C040020ADA00100C7
:106EB00090B585B000AF7860064B186879680023FC
:106EC0000A22054CA0470300FB60FB681800BD4682
:106ED00005B090BD90040020ADA0010080B582B047
:106EE00000AF78607B6800221A70C046BD4602B0D1
:106EF00080BD000080B582B000AF02003960FB1D8C
:106F00001A70FB1D1B78012B0AD0022B0FD0002B0F
:106F100014D10E4B0D4A91693A680A439A610FE009
:106F20000A4B0A4AD1693A680A43DA6108E0074B1A
:106F3000064A116A3A680A431A6201E0172300E020
:106F400000231800BD4602B080BDC04600040040CA
:106F500080B582B000AF78607B6880221A707B6851
:106F600000225A707B6801229A707B680022DA70D6
:106F7000C046BD4602B080BD80B500AF054B9B78D2
:106F8000DBB21A00022313405A1E9341DBB21800F1
:106F9000BD4680BD0020004180B500AF024B984740
:106FA000C046BD4680BDC046A55B020080B500AFAF
:106FB000024B9847C046BD4680BDC046F95B020003
:106FC00080B582B000AF0200FB1D1A70074AFB1D9E
:106FD0001B7819001F230B40012199400B00190059
:106FE0008023D150C046BD4602B080BD00E100E024
:106FF00080B584B000AF78607B681B68FB60FB687D
:10700000DB69072213405A1E9341DBB21800BD46CC
:1070100004B080BD80B582B000AF7860C0467B68A8
:107020001800044B9847031EF9D1C046BD4602B074
:1070300080BDC046F16F010080B584B000AF7860BC
:107040007B681B68FB607B681B6818000D4B9847CA
:10705000030018000C4B98477B6818000B4B9847AF
:10706000FB6883221A75FB6883221A76FB681B680B
:10707000022293431A00FB681A60C046BD4604B062
:1070800080BDC04679700200C16F0100157001001B
:10709000F0B597B000AF786139610023FB6300233E
:1070A0003B650023FB643B2310229446BC446344AD
:1070B00000221A707B691B68BB637B691B687B635A
:1070C00023231022BA18D4187B6B1800C04B9847A2
:1070D000030023700C2310229446BC446344180020
:1070E000BC4B98473B69DB697B643B691B6A3B642B
:1070F0007B6C002B06D17B6B00211800B64B9847A8
:1071000003007B647B6CDAB20C2310218C46BC44F8
:1071100063441A700C2310229446BC446344022238
:107120005A707B6C1B0CDBB20C2210218C46BC44C9
:10713000624411001800A94B98473B6C002B06D104
:107140007B6B01211800A44B984703003B643B6C08
:10715000DAB20C2310218C46BC4463441A700C2311
:1071600010229446BC44634402225A703B6C1B0CB0
:10717000DBB20C2210218C46BC4462441100180082
:10718000964B98473B699A8A7B69DA803B69DA8A31
:107190007B691A813B691B7E002B03D1904B98477A
:1071A000031E02D080237B6501E000237B653B69E1
:1071B0001B69002B04D03B691B697A6D13437B6507
:1071C0003B699B687A6D13437B653B6924229B5C1A
:1071D000002B04D07B6D8022D20513437B653B6975
:1071E0009B6A002B04D03B699B6A7A6D13437B65D5
:1071F0003B692C229B5C002B05D13B699A6880235C
:107200009B049A4204D17B6D8022120513437B6557
:107210003B692D229B5C002B04D07B6D80221204E5
:1072200013437B653B692E229B5C002B04D07B6D56
:107230008022D20313437B65BB6B1A687B6D1A43B4
:10724000BB6B1A60BB6B802252005A602323102252
:107250009446BC4463441B781433DBB21800614B82
:1072600098470300FB623B691B68FA229200534374
:10727000BB623B695B68FA22920053437B623B69C5
:107280001B8E3B62584BF86A984705000E00564B20
:10729000B86A9847B860F960534BF86A9847534CFE
:1072A000534A544BA04703000C003B607C604E4B9C
:1072B000386A984702000B004C4C38687968A04740
:1072C00003000C00180021004B4C00224B4BA04740
:1072D00003000C001A002300444CB868F968A0476A
:1072E00003000C001A002300454C28003100A04781
:1072F00003000C001D002600BB6A5A003A4B100028
:10730000984702000B003C4C28003100A0470300C6
:107310000C00180021003A4C00223A4BA047030011
:107320000C001D002600BB6A5A002F4B1000984726
:1073300002000B00344C28003100A04703000C0071
:1073400019002200314B0800110098470300FB632D
:107350003B699A6880239B049A426AD1224BF86A5F
:107360009847254C02000B00A04703000C001D00AD
:1073700026001D4B786A98471C4C0022244BA047DE
:1073800003000C001A0023001F4C28003100A04706
:1073900003000C0018002100194C0022194BA047D3
:1073A00003000C0019002200184B08001100984738
:1073B0000300FB64FB6C002B2ED0164B796AF86A35
:1073C000984703009A1EFB6CD31A3B6531E0C04618
:1073D000A96F0200516F0100ED6D0200999B020040
:1073E000796F01005D990200E53E0300513303000F
:1073F00095D626E80B2E113EC92603000000244036
:10740000513803000000F03FE92C03007D3E0300EB
:1074100000000840892303007B6A5A00FB6AD318E6
:107420005A1E7B6A59001D4B100098470300013B10
:107430003B65FB6BFF2B08DCFB6B002B05DB3B6D1F
:10744000FF2B02DC3B6D002B06DA3B231022944617
:10745000BC44634440221A703B2310229446BC442F
:1074600063441B78402B0ED0FB6BFF221A403B6D10
:107470001B041900FF231B040B401343FA6C120674
:107480001A43BB6BDA603B2310229446BC4463442E
:107490001B781800BD4617B0F0BDC0468923030015
:1074A00090B58BB000AFF860B9607A60FB68BA68DD
:1074B0001A60FB681B687B62FB681B6818003B4B0B
:1074C000984703003B623B6A0233FB613B6A14331B
:1074D000BB610122FB699A40130019000220344B62
:1074E00098471423FB181800324B98477B681A7B87
:1074F0001423FB181A70BB69DBB21422BA181100EE
:1075000018002D4B9847BB69DBB218002B4B9847EE
:107510007B681B7B00211800294B98477B6A1B68FE
:107520000222134001D01C233BE07B6A1B6801222E
:10753000134001D0052334E0FB681B681722BC18F8
:1075400018001A4B9847030023701E4A1723FB1894
:107550001B78110018001C4B98471723FB181A784A
:107560001A4B9200F968D150FB6800221A76FB682A
:1075700000225A76FB6800225A83FB6800229A8315
:10758000FB68252200219954FB6800221A627B6A5D
:1075900014221A607A68FB68110018000C4B984797
:1075A00003001800BD460BB090BDC046A96F020095
:1075B000F56E0100DD6E0100399802007D98020031
:1075C000616D0200153401000D700200C05A0020E8
:1075D0009170010080B584B000AF78607B681B6853
:1075E000FB607B6818000F4B98477B6818000E4BB8
:1075F00098470E4B98477B681B6818000C4B9847C0
:10760000030018000B4B98470B4B98477B681800FA
:10761000044B9847FB6801221A60C046BD4604B07F
:1076200080BDC0461570010039700100996F0100DE
:1076300079700200B5990200AD6F010080B584B089
:1076400000AF78607B681B68FB60FB681B7EDBB269
:107650001A00022313400BD0FB6802221A76FB6843
:107660005B8B9BB21A000223134011D0412310E020
:10767000FB685B8B9BB21A000423134008D0FB68A5
:107680005B68C02292021A43FB685A60182300E02C
:1076900000231800BD4604B080BD80B584B000AFA3
:1076A00078607B681B68BB600E23FB1800221A8081
:1076B0000FE00E23FB180E22BA18128801321A802E
:1076C0007B681B890E22BA1812889A4201D31223B2
:1076D0000EE0BB681B7EDBB21A000123134006D10B
:1076E000BB681B7EDBB21A0002231340E1D00023EB
:1076F0001800BD4604B080BD90B585B000AF78607D
:107700000A00FB1C1A707B681B68FB60FB685B68E7
:107710008022D2021A43FB685A60FB1C1A78FB686D
:107720005A620B23FC187B681800074B984703002C
:107730002370FB6801221A760B23FB181B781800B4
:10774000BD4605B090BDC0469B76010080B500AF38
:107750000020024B9847C046BD4680BD8977010096
:1077600080B500AF0120024B9847C046BD4680BDA2
:107770008977010080B500AF0220024B9847C046D0
:10778000BD4680BD8977010080B584B000AF02009E
:10779000FB1D1A70FB1D1A78284B9200D358FB6012
:1077A000FB681B689B7BDBB2FA68127E1340DAB27F
:1077B000FB68597E0B23FB180A401A700B23FB1839
:1077C0001B780122134008D0FB689B68FA68100000
:1077D0009847FB681B6801229A730B23FB181B78E0
:1077E0000222134008D0FB68DB68FA681000984753
:1077F000FB681B6802229A730B23FB181B7810226C
:10780000134008D0FB681B69FA6810009847FB68B2
:107810001B6810229A730B23FB181B78202213403D
:1078200008D0FB685B69FA6810009847FB681B6822
:1078300020229A73C046BD4604B080BDA8480020EF
:1078400080B584B000AF78600023FB607B68002BBC
:1078500001D172B6FEE70820114B98470300BB60C8
:10786000BB68002B01D172B6FEE7BB68002B12D0BB
:107870000C4B9847BB687A681A60BB6800225A6054
:10788000094B1B68BA685A60074BBA681A60074B05
:1078900098470123FB60FB681800BD4604B080BD1B
:1078A000519C0100199B0100E80000203D9B010054
:1078B00080B588B000AFF860B9607A600123FB61E1
:1078C0003D4B1B68002B44D13B4B3C4A1A603AE0CD
:1078D000394B1B681B681B68BB61BB691800384BC0
:1078E000984703007B61FA687B69D3181B78202BCB
:1078F00005D0FA687B69D3181B78002B1ED17A69F2
:10790000B969FB6818002F4B9847031E16D12A4B04
:107910001B681B681B7B5BB2002B19DBFB68180024
:10792000294B984703001A00234B1B681B681B7BDD
:107930005BB29A420CD00023FB6109E01E4B1B682E
:107940005A681D4B1A601C4B1B68002BC0D100E00D
:10795000C046194B1B68002B0CD0FB69002B09D1CA
:107960007A681A49BB681800194B9847124B0022D5
:107970001A601CE0104B1B68002B10D00E4B1B68CC
:107980001B689B68FA687968B86898470300FB61D0
:10799000FB69002B0BD1084B00221A6007E07A68C4
:1079A0000C49BB6818000A4B98470023FB61FB6930
:1079B0001800BD4608B080BD300B0020E00000205C
:1079C000FB43030009440300397A0100006203000D
:1079D0002B4403005862030080B586B000AFF86006
:1079E000B9607A60114B1B68002B02D10F4B104A13
:1079F0001A600E4B1B681B685968BA68FB68180050
:107A00000C4B9847094B1B685A68084B1A60074B88
:107A10001B68002B02D100237B6101E001237B6105
:107A20007B691800BD4606B080BDC046340B0020FF
:107A3000E00000202B44030080B584B000AF7860E4
:107A40000F23FB1800221A700023BB6018E07B682C
:107A50001B78202B0FD1BB68012B0ED00F23FB18F6
:107A60001B785BB2DBB20133DAB20F23FB181A705A
:107A70000123BB6001E00023BB607B6801337B60B6
:107A80007B681B78002BE2D1BB68012B09D10F2347
:107A9000FB181B785BB2DBB2013BDAB20F23FB1899
:107AA0001A700F23FB181B785BB21800BD4604B098
:107AB00080BD000080B582B000AF78607B681800A0
:107AC000034B984703001800BD4602B080BDC04676
:107AD00075B2010080B582B000AF78607B68180095
